:0400000045EF00F0D8
:100008000A8281EC08F001500210D8A40EEF00F02B
:1000180010EF00F021EF00F0D5AE15EF00F019EF6A
:1000280000F0076A072A1AEF00F0076A073207325A
:10003800D55007187F0B0718D56EF2A426EF00F0ED
:1000480028EF00F043EF00F0F294F70ED66EC20EE0
:10005800D76E010E0824016E000E0920026E000EF4
:10006800046E030E036E01EC08F001C008F002C034
:1000780009F008C001F009C002F059EC08F00A9232
:06008800110097EF08F0E3
:101000000000000E066E02BE0AEF08F008EF08F0BE
:1010100010EF08F0016C021ED8B0022A010E066E15
:1010200004BE17EF08F015EF08F01BEF08F0036C93
:10103000041ED8B0042A03500410D8B422EF08F0DC
:1010400024EF08F048EF08F0010E056E2CEF08F0D1
:10105000D89003360436052A04AE31EF08F033EF9A
:1010600008F028EF08F00350015C04500258D8A0A3
:101070003CEF08F03EEF08F042EF08F00350015E4D
:101080000450025AD89004320332052E33EF08F090
:101090000650D8B44EEF08F050EF08F054EF08F0C7
:1010A000016C021ED8B0022A01C001F002C002F099
:1010B0001200CDEC08F066EF08F08A8280EF08F0AD
:1010C0008A8480EF08F08A8680EF08F001C003F080
:1010D00002C004F00450000AD8B471EF08F080EFA9
:1010E00008F00350000AD8B45DEF08F0010AD8B444
:1010F00060EF08F0030AD8B463EF08F080EF08F05F
:101100001200070E036E7D0EE82EFED7032EFCD7CD
:10111000000081B08EEF08F092EF08F0036A032A16
:1011200093EF08F0036A0350016E026A1200A20EE8
:10113000F66E110EF76E000EF86E0900F5CF08F08E
:101140000900F5CF09F00A900A92000EF86E00012E
:10115000AAEF08F000009380939293949396C9ECC1
:1011600008F0BAEC08F0C3EC08F00000B5EF08F0A6
:1011700045EF00F0830ED56EF70ED66EC20ED76E19
:10118000F294F28A12009380F288F19CF292F28E2D
:1011900012008A928A948A9612008A928A948A9677
:0411A0001200020037
:020000040030CA
:0E000000FF291F3CFFBD85FF0FC00FE00F4022
:00000001FF
