:040000006EEF08F0A7
:1010000000000FEF08F08A802DEF08F08A822DEFA4
:1010100008F08A842DEF08F08A862DEF08F001C0D1
:1010200003F002C004F00450000AD8B41AEF08F02C
:101030002DEF08F00350000AD8B403EF08F0010ABE
:10104000D8B406EF08F0030AD8B409EF08F0010A93
:10105000D8B40CEF08F02DEF08F0120000009390C8
:1010600093929394939673EC08F066EC08F0000E5C
:10107000066E000E056E05C001F006C002F001EC20
:1010800008F059EC08F073EC08F0054A062A06BE91
:1010900053EF08F0065009E1040E055CD8A053EFA9
:1010A00008F055EF08F03BEF08F037EF08F000EFDD
:1010B00000F0F2A45EEF08F060EF08F059EF08F0DE
:1010C000F2940B0ED76EDB0ED66E1200830ED56E29
:1010D0000B0ED76EDB0ED66EF2941200000EF86E79
:1010E00000012EEF08F08A908A928A948A96120064
:020000040030CA
:0E000000FF291F3CFFBD85FF0FC00FE00F4022
:00000001FF
